:100000000C9473000C943D060C9490000C9490009A
:100010000C9490000C9490000C9490000C94900020
:100020000C9490000C9490000C9490000C94900010
:100030000C9490000C9490000C9490000C94900000
:100040000C9490000C9490000C9490000C949000F0
:100050000C9490002C032F033203350338033B0329
:100060003E03410307634236B79BD8A71A39685647
:1000700018AEBAAB558C1D3CB7CC5763BD6DEDFDCA
:10008000753EF6177231BF000000803F0800000087
:10009000BE922449123EABAAAA2ABECDCCCC4C3E7D
:1000A00000000080BEABAAAAAA3E00000000BF006C
:1000B0000000803F0000000000084178D3BB438768
:1000C000D1133D190E3CC3BD4282AD2B3E68EC827C
:1000D00076BED98FE1A93E4C80EFFFBE01C4FF7F01
:1000E0003F000000000011241FBECFE5D8E0DEBFB6
:1000F000CDBF11E0A0E6B0E0E6E0F4E102C005907B
:100100000D92A236B107D9F721E0A2E6B1E001C015
:100110001D92A636B207E1F70E94CF050C94010AA2
:100120000C9400008FE088BB40E050E060E170E09C
:10013000CB01042E02C0880F991F0A94E2F787BBF7
:1001400020E030E0000086B390E0022E02C09595DA
:1001500087950A94E2F780FD0BC0220F331F220F10
:10016000331F205A3F4FF901E40FF51F8081089596
:100170002F5F3F4F2430310529F74F5F5F4F4430E9
:100180005105B1F68EE40895672B09F09FC00097E2
:1001900011F4D89808958130910511F4D9980895F3
:1001A0008230910511F4DA9808958330910511F4A5
:1001B000DB9808958430910511F4DC98089585301A
:1001C000910511F4DD9808958630910511F4DE98BB
:1001D00008958730910511F4DF9808958A309105CC
:1001E00011F4C09808958B30910511F4C1980895C9
:1001F0008C30910511F4C29808958D30910511F459
:10020000C39808958E30910511F4C49808958F30E5
:10021000910511F4C59808958031910511F4C6989F
:1002200008958131910511F4C7980895843191059D
:1002300011F4A89808958531910511F4A9980895AD
:100240008631910511F4AA9808958731910511F42A
:10025000AB9808958831910511F4AC9808958931CF
:10026000910511F4AD9808958A31910511F4AE9875
:1002700008958B31910511F4AF9808958E31910551
:1002800011F4909808958F31910511F49198089583
:100290008032910511F4929808958132910511F4FC
:1002A000939808958232910511F4949808958332B9
:1002B000910511F4959808958432910511F496985A
:1002C0000895859709F09FC097980895009711F4B5
:1002D000D89A08958130910511F4D99A0895823001
:1002E000910511F4DA9A08958330910511F4DB9A9F
:1002F00008958430910511F4DC9A089585309105B4
:1003000011F4DD9A08958630910511F4DE9A08956E
:100310008730910511F4DF9A08958A30910511F420
:10032000C09A08958B30910511F4C19A08958C30CC
:10033000910511F4C29A08958D30910511F4C39A74
:1003400008958E30910511F4C49A08958F30910567
:1003500011F4C59A08958031910511F4C69A089553
:100360008131910511F4C79A08958431910511F4F2
:10037000A89A08958531910511F4A99A08958631B6
:10038000910511F4AA9A08958731910511F4AB9A59
:1003900008958831910511F4AC9A08958931910539
:1003A00011F4AD9A08958A31910511F4AE9A089529
:1003B0008B31910511F4AF9A08958E31910511F4A6
:1003C000909A08958F31910511F4919A0895803291
:1003D000910511F4929A08958132910511F4939A3E
:1003E00008958232910511F4949A0895833291050B
:1003F00011F4959A08958432910511F4969A08950E
:10040000859709F4979A0895CF93C82F80FF07C066
:1004100061E070E082E290E00E94C40006C060E00B
:1004200070E082E290E00E94C400C1FF07C061E07A
:1004300070E083E290E00E94C40006C060E070E0DB
:1004400083E290E00E94C400C2FF07C061E070E058
:1004500084E290E00E94C40006C060E070E084E2A4
:1004600090E00E94C400C3FF07C061E070E085E235
:1004700090E00E94C40006C060E070E085E290E079
:100480000E94C400CF910895CF93C82F60E070E020
:100490008AE190E00E94C4008C2F0E94040261E077
:1004A00070E08BE190E00E94C40089EF90E001973A
:1004B000F1F700C0000060E070E08BE190E00E9486
:1004C000C40089EF90E00197F1F700C00000CF91E0
:1004D000089580E00E94440281E00E944402089551
:1004E000CF93C62F813059F480E8860F82958F70A4
:1004F0000E9444028C2F8F700E9444020CC08230F4
:1005000051F480EC860F82958F700E9444028C2FEC
:100510008F700E944402CF91089580E00E940402EF
:1005200087E893E10197F1F700C0000083E00E94A3
:10053000440281EE94E00197F1F700C0000083E0EF
:100540000E9444028DEB9AE00197F1F700C0000091
:1005500083E00E94440282E00E94440282E00E9402
:10056000440288E00E94440280E00E9444028CE041
:100570000E94440280E00E94440286E00E944402FD
:100580000895CF93C82F61E070E08AE190E00E9467
:10059000C4008C2F82958F700E94040261E070E08D
:1005A0008BE190E00E94C40089EF90E00197F1F7A1
:1005B00000C0000060E070E08BE190E00E94C400A9
:1005C00089EF90E00197F1F700C000008C2F8F7049
:1005D0000E94040261E070E08BE190E00E94C400A0
:1005E00089EF90E00197F1F700C0000060E070E053
:1005F0008BE190E00E94C40089EF90E00197F1F751
:1006000000C00000CF910895CF93DF93EC01888163
:10061000882331F021960E94C10289918111FBCF7C
:10062000DF91CF9108950E9492008E34E1F30895F6
:100630008FEF8ABB84B3836084BB1BBA0895D89ABA
:100640000895D898089590E088309105E0F4FC0171
:10065000E65DFF4F0C94FB09DA9ADA980895DB9A6D
:10066000DB980895DC9ADC980895DD9ADD9808956A
:10067000DE9ADE980895DF9ADF980895A89AA898E0
:100680000895A99AA99808950F931F93CF93DF9384
:10069000182F062FD99AC8E0D0E011231CF40E942D
:1006A0001F0302C00E942103802F0E942303110F09
:1006B000219799F7D998DF91CF911F910F910895C4
:1006C0003F924F925F926F927F928F929F92AF92E2
:1006D000BF92CF92DF92EF92FF920F931F93CF932F
:1006E000DF9300D000D0CDB7DEB789830E946902C6
:1006F0002981213029F48EEC90E00E94040304C08B
:100700008DED90E00E9404033FEB87E299E03150C9
:1007100080409040E1F700C000000E9469028DEE29
:1007200090E00E940403EFEBF7E229E0E150F04093
:100730002040E1F700C000000E94690264E081E00F
:100740000E9444033FE38DE093E0315080409040AD
:10075000E1F700C0000064E082E00E944403EFE3A0
:10076000FDE023E0E150F0402040E1F700C0000050
:1007700064E084E00E9444033FE38DE093E0315065
:1007800080409040E1F700C0000064E088E00E94F3
:100790004403EFE3FDE023E0E150F0402040E1F7C7
:1007A00000C0000064E080E10E9444033FE38DE06C
:1007B00093E0315080409040E1F700C0000064E0D9
:1007C00080E20E944403EFE3FDE023E0E150F040CB
:1007D0002040E1F700C0000064E080E40E94440390
:1007E0003FE38DE093E0315080409040E1F700C05E
:1007F000000064E080E80E944403EFE3FDE023E0B2
:10080000E150F0402040E1F700C0000081E990E0B5
:100810009A8389833C01AA24A394B12CC12CD12CA6
:10082000812C912C1C821B82412C332433947DC05B
:1008300000E010E0512C8BEF90E00E94040360E098
:1008400082E00E947002EB81FC81399739F4FFEF5E
:100850008F1A9F0A21E030E03C832B83682D832D83
:100860000B8001C0880F0A94EAF70E9444038B8131
:100870009C8101969C838B830E941303E42DF0E0FE
:10088000EF55FF4F9081891305C089E091E00E94E8
:10089000040305C083E191E00E9404035394439450
:1008A0009FE7EAE1F6E09150E040F040E1F700C058
:1008B00000000E94690223E052120EC08BE191E019
:1008C0000E94040360E082E00E947002F3018081D4
:1008D00091810E9404031BC0F1E05F1212C0E11479
:1008E000F10479F48BE191E00E94040360E082E07E
:1008F0000E947002E3E9F0E0808191810E9404038C
:100900000BC00F5F1F4FE016F1060CF094CF85016E
:10091000F7E0AF16B1047CF42FEFC21AD20A3FEF12
:10092000A31AB30A82E0680E711C7601DD200CF078
:100930007FCF512CECCF511014C00E9469028BE183
:1009400091E00E94040360E082E00E947002000FC8
:10095000111FF801ED56FF4F808191810E94040321
:1009600035C091E0591218C00E9469028BE191E0F4
:100970000E94040360E082E00E947002F501EE0F25
:10098000FF1FED56FF4F808191810E9404038DE28D
:1009900091E00E9404031AC0E2E05E1217C00E94B8
:1009A00069028BE191E00E94040360E082E00E9412
:1009B0007002F501EE0FFF1FED56FF4F8081918110
:1009C0000E94040380E391E00E940403FFEF24E30C
:1009D0003CE0F15020403040E1F700C000000E94B0
:1009E000690283E391E00E9404038FEB97E2E9E060
:1009F00081509040E040E1F700C000000E94690291
:100A000001E010E0F12C0F2EF3E9CF2EF0E0DF2E05
:100A1000F02D78C08BEF90E00E94040361E082E04B
:100A20000E9470022B813C812730310529F43FEF71
:100A3000831A930A1C821B82EB81FC81BF01FF0F8A
:100A4000880B990B0E949E069B01AC0160E070E050
:100A500080E090E40E9402070E946D06862F682DB8
:100A60000E9444032B813C812F5F3F4F3C832B83AB
:100A70000E941303EF2DF0E0E059FF4F908189139E
:100A800005C089E091E00E94040305C083E191E084
:100A90000E940403B394F3943FE78AE196E0315057
:100AA00080409040E1F700C000000E946902E2E04F
:100AB000BE121AC08BE191E00E94040360E082E064
:100AC0000E9470020130110539F4F6018081918194
:100AD0000E940403AF2C0DC0E981FA8180819181CD
:100AE0000E940403AF2C02C0AF1094CF0730110551
:100AF00084F40F5F1F4F29813A812E5F3F4F3A8365
:100B00002983FA2C0F2EF7E0AF2EF02DAF0CB12C6D
:100B100081CFB11014C00E9469028BE191E00E9464
:100B2000040360E082E00E947002F801EE0FFF1FF4
:100B3000ED56FF4F808191810E9404031AC031E07D
:100B4000B31217C00E9469028BE191E00E94040376
:100B500060E082E00E947002F801EE0FFF1FED5688
:100B6000FF4F808191810E9404038DE291E00E94F9
:100B700004030F900F900F900F90DF91CF911F9172
:100B80000F91FF90EF90DF90CF90BF90AF909F902C
:100B90008F907F906F905F904F903F9008958BEF74
:100BA00081BB8FEF84BB17BA8ABB12BA1BBA15BAC6
:100BB00083ED90E30197F1F700C000008BB78064EC
:100BC0008BBF85B7816085BF1FBC0E948D020E94CC
:100BD00018039FE72AE186E0915020408040E1F72A
:100BE00000C00000789460E080E00E9444038FE43D
:100BF00093EC0197F1F700C0000061E080E00E94F3
:100C000044038FE493EC0197F1F700C0000062E029
:100C100080E00E9444038FE493EC0197F1F700C059
:100C2000000063E080E00E9444038FE493EC0197AE
:100C3000F1F700C0000064E080E00E9444038FE40C
:100C400093EC0197F1F700C0000065E080E00E949E
:100C500044038FE493EC0197F1F700C0000066E0D5
:100C600080E00E9444038FE493EC0197F1F700C009
:100C7000000081E00E946003B6CF1F920F920FB672
:100C80000F9211248F939F93809162019091630141
:100C9000019769F41EBC8CB59DB590936501809356
:100CA00064011DBC1CBC1092630110926201809112
:100CB000620190916301892B49F48EB581608EBDEC
:100CC00081E090E090936301809362019F918F9106
:100CD0000F900FBE0F901F9018950E94E10688F0AC
:100CE0009F5798F0B92F9927B751B0F0E1F0660FF0
:100CF000771F881F991F1AF0BA95C9F714C0B13031
:100D000091F00E94FB06B1E008950C94FB06672F5A
:100D1000782F8827B85F39F0B93FCCF3869577955F
:100D20006795B395D9F73EF4909580957095619548
:100D30007F4F8F4F9F4F0895E89409C097FB3EF473
:100D400090958095709561957F4F8F4F9F4F992318
:100D5000A9F0F92F96E9BB279395F6958795779596
:100D60006795B795F111F8CFFAF4BB0F11F460FF56
:100D70001BC06F5F7F4F8F4F9F4F16C0882311F0AE
:100D800096E911C0772321F09EE8872F762F05C0C2
:100D9000662371F096E8862F70E060E02AF09A955D
:100DA000660F771F881FDAF7880F9695879597F952
:100DB000089557FD9058440F551F59F05F3F71F04B
:100DC0004795880F97FB991F61F09F3F79F08795B2
:100DD0000895121613061406551FF2CF4695F1DF3B
:100DE00008C0161617061806991FF1CF86957105CB
:100DF000610508940895E894BB2766277727CB01FF
:100E000097F90895FA01EE0FFF1F3096210531057D
:100E1000A1F16115710561F48038BFE39B0749F1C9
:100E200068949038810561F08038BFEF9B0741F0EE
:100E300099234AF5FF3FE1053105210519F1E894B1
:100E40000894E795D901AA2329F4AB2FBE2FF85FA8
:100E5000D0F310C0FF5F70F4A695E0F7F73950F0BB
:100E600019F0FF3A38F49F779F930DD00F9007FC4D
:100E70009058089546F00C94920760E070E080E886
:100E80009FE308954FE79F775F934F933F932F938F
:100E90000E9406082F913F914F915F910E94820816
:100EA0000C945A0729F416F00C948C070C94FB064A
:100EB0000C9492070E94E106A8F39638A0F707F871
:100EC0000F92E8942BE33AEA48EB5FE70E94980818
:100ED0000F920F920F924DB75EB70F920E944E087D
:100EE000E4E6F0E00E9495074F915F91EF91FF914A
:100EF000E595EE1FFF1F49F0FE57E0684427EE0F0F
:100F0000441FFA95E1F74195550B0E94C8070F90D1
:100F100007FE0C94BC07089597F99F6780E870E07E
:100F200060E008959FEF80EC0895DF93CF931F93C7
:100F30000F93FF92EF92DF927B018C01689406C0C1
:100F4000DA2EEF010E949508FE01E894A591259103
:100F5000359145915591A6F3EF010E940709FE01D5
:100F60009701A801DA9469F7DF90EF90FF900F9155
:100F70001F91CF91DF9108959B01AC0160E070E07B
:100F800080E89FE30C945C090C948C070C94CE09C8
:100F90000E94E106D8F39923C9F3940F511DA3F3DE
:100FA0009150504094F059F0882332F0660F771F2B
:100FB000881F91505040C1F79E3F51052CF7880F74
:100FC000911D9695879597F908955F3FACF0983EEF
:100FD0009CF0BB27869577956795B79508F4B16027
:100FE0009395C1F7BB0F58F711F460FFE8CF6F5F1F
:100FF0007F4F8F4F9F4FE3CF0C94FC0616F00C945D
:10100000CE090C94920768940C948C070E94E10618
:10101000A8F39923C1F3AEF3DF93CF931F930F93FC
:10102000FF92C92FDD2788232AF02197660F771FAB
:10103000881FDAF720E030E040E85FEB9FE3883973
:1010400020F0803E38F021968F770E94F008ECE87F
:10105000F0E004C00E94F008E9EBF0E00E94950780
:101060008B01BE01EC01FB2E6F5771097595771F3F
:10107000880B990B0E949E0628E132E741E35FE36B
:101080000E949508AF2D9801AE01FF900F911F911E
:10109000CF91DF910E9407090C94EA09FA01DC0163
:1010A000AA0FBB1F9B01AC01BF5728F4222733278F
:1010B0004427507820C0B75190F4AB2F00244695B8
:1010C00037952795011CA395D2F3002071F0220FCC
:1010D000331F441FB395DAF30ED00C94EF08613040
:1010E0007105A0E88A07B94630F49B01AC01662778
:1010F000772788279078309621F0208331834283A8
:10110000538308950E9495080C94EA090E94DC0913
:1011100038F00E94E30920F0952311F00C948C071D
:101120000C94920711240C94FC060E94D90670F3CB
:10113000959FC1F3950F50E0551F629FF001729F7C
:10114000BB27F00DB11D639FAA27F00DB11DAA1F8B
:10115000649F6627B00DA11D661F829F2227B00DD8
:10116000A11D621F739FB00DA11D621F839FA00D63
:10117000611D221F749F3327A00D611D231F849FB3
:10118000600D211D822F762F6A2F11249F5750400A
:101190009AF0F1F088234AF0EE0FFF1FBB1F661F85
:1011A000771F881F91505040A9F79E3F510580F04E
:1011B0000C948C070C94FC065F3FE4F3983ED4F348
:1011C000869577956795B795F795E7959F5FC1F7F2
:1011D000FE2B880F911D9695879597F90895505885
:1011E000BB27AA270E9407090C94EA090E94DC0980
:1011F00038F00E94E30920F039F49F3F19F426F4F7
:101200000C9492070EF4E095E7FB0C948C07E92F01
:101210000E94D90658F3BA17620773078407950727
:1012200020F079F4A6F50C94FB060EF4E0950B2E55
:10123000BA2FA02D0B01B90190010C01CA01A00128
:101240001124FF27591B99F0593F50F4503E68F183
:101250001A16F040A22F232F342F4427585FF3CFC4
:10126000469537952795A795F0405395C9F77EF495
:101270001F16BA0B620B730B840BBAF09150A1F0DE
:10128000FF0FBB1F661F771F881FC2F70EC0BA0F64
:10129000621F731F841F48F4879577956795B795EC
:1012A000F7959E3F08F0B0CF9395880F08F09927E7
:1012B000EE0F9795879508950E9470090C94EA099E
:1012C0000E94E30958F00E94DC0940F029F45F3FD6
:1012D00029F00C948C0751110C94FC060C94920785
:1012E0000E94D90668F39923B1F3552391F3951B16
:1012F000550BBB27AA2762177307840738F09F5F37
:101300005F4F220F331F441FAA1FA9F335D00E2EA3
:101310003AF0E0E832D091505040E695001CCAF710
:101320002BD0FE2F29D0660F771F881FBB1F2617D3
:1013300037074807AB07B0E809F0BB0B802DBF01AA
:10134000FF2793585F4F3AF09E3F510578F00C9479
:101350008C070C94FC065F3FE4F3983ED4F386952B
:1013600077956795B795F7959F5FC9F7880F911D9A
:101370009695879597F90895E1E0660F771F881F86
:10138000BB1F621773078407BA0720F0621B730B39
:10139000840BBA0BEE1F88F7E09508959F3F31F05C
:1013A000915020F4879577956795B795880F911D93
:1013B0009695879597F9089500240A9416161706AE
:1013C00018060906089500240A9412161306140636
:1013D00005060895092E0394000C11F4882352F099
:1013E000BB0F40F4BF2B11F460FF04C06F5F7F4F51
:1013F0008F4F9F4F0895EE0FFF1F0590F491E02D42
:061400000994F894FFCFEF
:101406003132334134353642373839432A30234472
:101416003639353839353936393836383936353951
:101426003835363938393635383536393836363549
:10143600383938410146014B01500155015A015EC8
:10144600013539343236303338393530363234387E
:101456003633303935323832343933363500796FF0
:10146600757220526573756C74203A2D2000436C9A
:101476006F7365206C6566742065796500436C6FD3
:1014860073652072696768742065796500566973AB
:10149600696F6E207465737420310053656C6563E3
:1014A60074206F7074696F6E00436F727265637437
:1014B6002E2E0057726F6E672E2E00596F75722092
:1014C600766973696F6E2073636F7265002D3100E4
:1014D6002D3200566973696F6E20746573742032FD
:1014E60000362F363000362F333600362F32340092
:1014F600362F313800362F313200362F3900362F4D
:021506003600AD
:00000001FF
